:1000000064C000008AC0000088C0000086C00000F4
:1000100084C0000082C0000080C000007EC00000DC
:100020007CC000007AC0000078C000000C944D0E27
:1000300074C0000072C0000070C000006EC00000FC
:100040000C946A136AC000000C9457110C94981118
:1000500064C0000062C0000060C000005EC000001C
:100060000C948B0C5AC00000000000070002010035
:100070000003040600000000000000000102040864
:100080001020408001020408102001020408102002
:10009000040404040404040402020202020203032E
:1000A00003030303000000002300260029000000D2
:1000B0000000250028002B0000000000240027007D
:1000C0002A00700102034A0E521211241FBECFEF04
:1000D000D8E0DEBFCDBF12E0A0E0B1E0E4EDF5E393
:1000E00002C005900D92A23CB107D9F715E0A2EC31
:1000F000B2E001C01D92AA39B107E1F710E0CAECE5
:10010000D0E004C02297FE010E941216C23CD10723
:10011000C9F70E9454130C94E81A72CF0895F8940A
:100120001092CB021092CC021092CD021092CE020D
:10013000789489E791E06BC3DC01ED91FD918081BA
:10014000ED91FD919081ED91FD916C9163708E2305
:1001500009F064609F2309F06860E9EBF0E0E60FC6
:10016000F11D659565956D936D917D918D919D9135
:10017000099423C01AC012C016C010C01EC009C006
:1001800014C013C006C019C009C00DC007C00DC0FF
:1001900014C062507040804090400BC0615070406D
:1001A0008040904006C06E5F01C06F5F7F4F8F4FF1
:1001B0009F4F9E938E937E936E930895CF93DF937C
:1001C000EC018B85823020F4F894CE01B5DF01C0BC
:1001D000F8946F81788589859A857894DF91CF919D
:1001E00008950F931F93CF93DF93CDB7DEB72A9770
:1001F0000FB6F894DEBF0FBECDBF8AE0E3E6F1E0B4
:10020000DE01119601900D928A95E1F784EC92E05F
:10021000D5DF161617061806190654F484EC92E07A
:10022000CDDF22E030E040E050E00E94D61510C063
:1002300084EC92E0C3DF22E030E040E050E00E9436
:10024000D61550954095309521953F4F4F4F5F4FB4
:10025000CA01B90125E030E040E050E00E94D61527
:100260008B018091C2029091C3020817190781F097
:10027000F801EE0FFF1F81E090E08C0F9D1FE80F4B
:10028000F91F80819181C3D21093C3020093C202EF
:1002900086E00E945E15892B99F486E00E945E1527
:1002A000892BD9F30130110571F00230110529F0C5
:1002B000012B31F484E191E008C08CE191E005C0AC
:1002C00080E090E002C08CE091E02A960FB6F894AE
:1002D000DEBF0FBECDBFDF91CF911F910F9108956B
:1002E00062E084E00E94F01462E085E00E94F01475
:1002F000E4E9F0E0E491F0E0EE0FFF1FEC55FF4F72
:10030000859194919093C5028093C402E0E8F0E057
:10031000E491E093C802E5E9F0E0E491F0E0EE0F4B
:10032000FF1FEC55FF4F859194919093C7028093E6
:10033000C602E1E8F0E0E491E093C9021092CB023A
:100340001092CC021092CD021092CE0280ED97E076
:100350000E940714E091C402F091C502908180913F
:10036000C802982381E009F480E0E091C602F09190
:10037000C70290812091C902922309F08260809384
:10038000CA021092CF0208950895F8941092CB02F9
:100390001092CC021092CD021092CE02789482EA92
:1003A00091E035C2CF92DF92EF92FF920F931F93AD
:1003B000CF93DF9300D000D000D0CDB7DEB786E07A
:1003C000EDE6F1E0DE01119601900D928A95E1F7DC
:1003D0008091CF02823028F4F89484EC92E0ACDE75
:1003E00001C0F8946091CB027091CC028091CD0253
:1003F0009091CE02789422E030E040E050E00E94FC
:10040000D615CA01B90123E030E040E050E00E9477
:10041000D6156B017C018B018091D0029091D102A5
:10042000C816D90681F0F601EE0FFF1F81E090E0BB
:100430008C0F9D1FE80FF91F80819181E8D1D09228
:10044000D102C092D00286E00E945E15892B99F4F9
:1004500086E00E945E15892BD9F30130110511F158
:100460000230110529F0012B31F48EE291E01CC01D
:1004700086E391E019C087E00E945E15892B61F444
:100480006FE070E080E090E00E94E31387E00E945C
:100490005E15892BD9F303C080E090E005C084E0AD
:1004A00091E002C08EE391E026960FB6F894DEBF8D
:1004B0000FBECDBFDF91CF911F910F91FF90EF90B5
:1004C000DF90CF9008950895F8941092CB02109287
:1004D000CC021092CD021092CE0278948BEB91E078
:1004E00096C1CF92DF92EF92FF920F931F93CF931B
:1004F000DF9300D000D000D0CDB7DEB786E0E3E7D1
:10050000F1E0DE01119601900D928A95E1F780915C
:10051000CF02823028F4F89484EC92E00DDE01C022
:10052000F8946091CB027091CC028091CD029091B1
:10053000CE02789422E030E040E050E00E94D615F0
:10054000CA01B90123E030E040E050E00E94D61536
:100550006B017C018B018091D2029091D302C8166D
:10056000D90681F0F601EE0FFF1F81E090E08C0FBD
:100570009D1FE80FF91F8081918149D1D092D3024C
:10058000C092D20286E00E945E15892B99F486E023
:100590000E945E15892BD9F30130110511F102304B
:1005A000110529F0012B31F488E591E01CC088E4A5
:1005B00091E019C087E00E945E15892B61F46FE01D
:1005C00070E080E090E00E94E31387E00E945E15F7
:1005D000892BD9F303C080E090E005C084E091E06E
:1005E00002C080E591E026960FB6F894DEBF0FBEFC
:1005F000CDBFDF91CF911F910F91FF90EF90DF90D2
:10060000CF90089584ED92E00C94070FF894109227
:10061000CB021092CC021092CD021092CE027894AE
:1006200008950895CF92DF92EF92FF920F931F9358
:10063000CF93DF93CDB7DEB760970FB6F894DEBFE8
:100640000FBECDBF8091CF02823028F4F89484ECA5
:1006500092E072DD01C0F8946091CB027091CC02FF
:100660008091CD029091CE02789422E030E040E07B
:1006700050E00E94D615CA01B90126E030E040E002
:1006800050E00E94D615862F062F172F0E944D147A
:100690007C016801CC0CDD1CF601E952FD4F808124
:1006A00091819701281B390BC90137FF03C0919530
:1006B000819591090C979CF1B701882777FD80956A
:1006C000982F0E94251720E030E040E85AE30E946E
:1006D000B11720E030E048EC52E40E94B1170E94CC
:1006E000F2167F936F931F930F9389EE91E09F9380
:1006F0008F931F9281E18F938E010F5F1F4F1F9386
:100700000F930E941B18C80182D0F601E952FD4FD9
:10071000F182E0820FB6F894DEBF0FBECDBF87E056
:100720000E945E15892B61F46FE070E080E090E03C
:100730000E94E31387E00E945E15892BD9F303C062
:1007400080E090E002C084E091E060960FB6F894FB
:10075000DEBF0FBECDBFDF91CF911F910F91FF90F4
:10076000EF90DF90CF9008950F931F938091E70251
:10077000811114C087EE92E00E945D13892B71F005
:100780000E94B4136093E3027093E4028093E50245
:100790009093E60287EE92E00E9466130E94B413E3
:1007A0000091E3021091E4022091E5023091E6020B
:1007B000601B710B820B930B6536710581059105EA
:1007C00018F1609124018DE00E9429158091240187
:1007D0009091250121E082279093250180932401A7
:1007E0008091E3029091E402A091E502B091E602CB
:1007F0008C599F4FAF4FBF4F8093E3029093E40219
:10080000A093E502B093E6021F910F910895BC01F9
:1008100087EE94E00C94FF1284E091E0089566EF77
:1008200071E087EE94E00E94FF126EE072E087EEC6
:1008300094E00C94FF120895CF93DF93CDB7DEB709
:1008400060970FB6F894DEBF0FBECDBF61E08BE0BE
:100850000E94F014F8941092CB021092CC021092E5
:10086000CD021092CE02789460E070E08BE00E949E
:100870006A1464E272E0CE0101960E941418CE015F
:100880000196C5DF60960FB6F894DEBF0FBECDBFF0
:10089000DF91CF910895CF92DF92EF92FF920F9365
:1008A0001F93CF93DF93CDB7DEB760970FB6F89461
:1008B000DEBF0FBECDBF8091F702811121C087EF4F
:1008C00092E00E945D13892BD9F08091CF02823093
:1008D00028F4F89484EC92E02FDC01C0F894809125
:1008E000CB029091CC02A091CD02B091CE0278942F
:1008F0009093F6028093F50287EF92E00E946613D0
:100900008091CF02823028F4F89484EC92E014DCD9
:1009100001C0F8946091CB027091CC028091CD021D
:100920009091CE02789422E030E040E050E00E94C6
:10093000D615890137FF0CC0F8941092CB021092A3
:10094000CC021092CD021092CE02789400E010E01A
:100950008091F5029091F6020817190729F10E947B
:10096000B413C090F102D090F202E090F302F09044
:10097000F4026C197D098E099F09643171058105A6
:10098000910524F0CC24C394D12C03C02AE0C22EBC
:10099000D12C0E94B4136093F1027093F202809301
:1009A000F3029093F40203C0CC24C394D12C809121
:1009B000F5029091F6029801281B390BC29E700136
:1009C000C39EF00CD29EF00C11248091EF02909106
:1009D000F002E80EF91EF7FE02C0E12CF12C3FEF09
:1009E000E316F10421F01CF0EE24EA94F12C1093AC
:1009F000F6020093F50286E00E945E15892B21F431
:100A0000B7018BE00E946A148091EF029091F0028E
:100A1000E816F906D9F0FF92EF9280E392E09F93F7
:100A20008F931F9281E18F938E010F5F1F4F1F9352
:100A30000F930E941B18C801EADEF092F002E092C8
:100A4000EF020FB6F894DEBF0FBECDBF87E00E9465
:100A50005E15892B61F46FE070E080E090E00E9409
:100A6000E31387E00E945E15892BD9F303C080E071
:100A700090E002C08CE091E060960FB6F894DEBF83
:100A80000FBECDBFDF91CF911F910F91FF90EF90DF
:100A9000DF90CF9008950895CF93DF93CDB7DEB761
:100AA00060970FB6F894DEBF0FBECDBF61E08BE05C
:100AB0000E94F014F8941092CB021092CC02109283
:100AC000CD021092CE02789460E070E08BE00E943C
:100AD0006A146DE372E0CE0101960E941418CE01F3
:100AE000019695DE60960FB6F894DEBF0FBECDBFBF
:100AF000DF91CF910895CF92DF92EF92FF920F9303
:100B00001F93CF93DF93CDB7DEB760970FB6F894FE
:100B1000DEBF0FBECDBF80910703811121C087E0EA
:100B200093E00E945D13892BD9F08091CF0282302F
:100B300028F4F89484EC92E0FFDA01C0F8948091F4
:100B4000CB029091CC02A091CD02B091CE027894CC
:100B5000909306038093050387E093E00E94661359
:100B60008091CF02823028F4F89484EC92E0E4DAA9
:100B700001C0F8946091CB027091CC028091CD02BB
:100B80009091CE02789422E030E040E050E00E9464
:100B9000D615890137FF0CC0F8941092CB02109241
:100BA000CC021092CD021092CE02789400E010E0B8
:100BB00080910503909106030817190729F10E94F7
:100BC000B413C0900103D0900203E0900303F090AF
:100BD00004036C197D098E099F0964317105810533
:100BE000910524F0CC24C394D12C03C02AE0C22E5A
:100BF000D12C0E94B413609301037093020380937D
:100C000003039093040303C0CC24C394D12C80919C
:100C10000503909106039801281B390BC29E7001B1
:100C2000C39EF00CD29EF00C11248091FF02909193
:100C30000003E80EF91EF7FE02C0E12CF12C33E3AD
:100C4000E316F1041CF082E3E82EF12C1093060366
:100C50000093050386E00E945E15892B69F42FEF4F
:100C60002E9DC0012F9D900D112462E370E00E9423
:100C7000A1158BE00E946A148091FF0290910003FD
:100C8000E816F90651F1C7016AE070E00E94A1156B
:100C900026EF2603C001279F900D11248E0D9F1D66
:100CA0009F938F937F936F9388E492E09F938F93AA
:100CB0001F9281E18F938E010F5F1F4F1F930F9340
:100CC0000E941B18C801A3DDF0920003E092FF020E
:100CD0000FB6F894DEBF0FBECDBF87E00E945E1551
:100CE000892B61F46FE070E080E090E00E94E313F4
:100CF00087E00E945E15892BD9F303C080E090E065
:100D000002C08CE091E060960FB6F894DEBF0FBE93
:100D1000CDBFDF91CF911F910F91FF90EF90DF90AA
:100D2000CF90089508950F931F93CF93DF93CDB77E
:100D3000DEB760970FB6F894DEBF0FBECDBF61E09F
:100D40008BE00E94F014F8941092CB021092CC0227
:100D50001092CD021092CE02789460E070E08BE0A9
:100D60000E946A1485E592E09F938F931F9281E120
:100D70008F938E010F5F1F4F1F930F930E941B18BD
:100D8000C80145DD0F900F900F900F900F900F90BE
:100D900060960FB6F894DEBF0FBECDBFDF91CF9146
:100DA0001F910F910895CF92DF92EF92FF920F93D0
:100DB0001F93CF93DF93CDB7DEB760970FB6F8944C
:100DC000DEBF0FBECDBF80911703811121C087E127
:100DD00093E00E945D13892BD9F08091CF0282307D
:100DE00028F4F89484EC92E0A7D901C0F89480919B
:100DF000CB029091CC02A091CD02B091CE0278941A
:100E0000909316038093150387E193E00E94661385
:100E10008091CF02823028F4F89484EC92E08CD94F
:100E200001C0F8946091CB027091CC028091CD0208
:100E30009091CE02789422E030E040E050E00E94B1
:100E4000D615890137FF0CC0F8941092CB0210928E
:100E5000CC021092CD021092CE02789400E010E005
:100E600080911503909116030817190729F10E9424
:100E7000B413C0901103D0901203E0901303F090CC
:100E800014036C197D098E099F0964317105810570
:100E9000910524F0CC24C394D12C03C02AE0C22EA7
:100EA000D12C0E94B41360931103709312038093AA
:100EB00013039093140303C0CC24C394D12C8091CA
:100EC0001503909116039801281B390BC29E7001DF
:100ED000C39EF00CD29EF00C112480910F039091D0
:100EE0001003E80EF91EF7FE02C0E12CF12C35E6E6
:100EF000E316F1041CF084E6E82EF12C109316039F
:100F00000093150386E00E945E15892B69F42FEF8C
:100F10002E9DC0012F9D900D112464E670E00E946B
:100F2000A1158BE00E946A1480910F039091100329
:100F3000E816F906D9F0FF92EF928FE592E09F93C1
:100F40008F931F9281E18F938E010F5F1F4F1F932D
:100F50000F930E941B18C8015ADCF0921003E09214
:100F60000F030FB6F894DEBF0FBECDBF87E00E941F
:100F70005E15892B61F46FE070E080E090E00E94E4
:100F8000E31387E00E945E15892BD9F303C080E04C
:100F900090E002C08CE091E060960FB6F894DEBF5E
:100FA0000FBECDBFDF91CF911F910F91FF90EF90BA
:100FB000DF90CF9008956BE070E084ED92E0BFD7B2
:100FC00084ED92E00E945810853F21E092072CF0BA
:100FD000845F9140880F991F07C024EF31E0281BE0
:100FE000390B220F331FC90165E070E00E94A11583
:100FF000F894CB01AA2797FDA095BA2F8093CB0236
:101000009093CC02A093CD02B093CE027894089531
:1010100084ED92E099C7AF92BF92CF92DF92EF92A8
:10102000FF920F931F93CF93DF93CDB7DEB76097F7
:101030000FB6F894DEBF0FBECDBF84EC92E0BED8F1
:10104000161617061806190654F484EC92E0B6D862
:1010500022E030E040E050E00E94D61510C084EC61
:1010600092E0ACD822E030E040E050E00E94D6159B
:1010700050954095309521953F4F4F4F5F4F590107
:1010800080912303909124032817390719F10E94B6
:10109000B413C0901F03D0902003E0902103F09080
:1010A00022036C197D098E099F0964317105810540
:1010B00091051CF005E010E002C002E310E00E9480
:1010C000B41360931F0370932003809321039093C4
:1010D000220302C005E010E0809146019091470193
:1010E000845F91404091230350912403B501641B18
:1010F000750B069FA001079F500D169F500D1124E0
:10110000840F951F68EB7BE00E94A1151816190645
:1011100024F48C010C501E4F02C004EF11E0093B77
:101120008BE0180714F008EB1BE0B0922403A092A8
:101130002303B80184ED92E015D780914601909188
:10114000470108171907D9F01F930F938AE692E019
:101150009F938F931F9281E18F93CE0101967C0123
:10116000FF928F930E941B18C70151DB1093470118
:10117000009346010FB6F894DEBF0FBECDBF87E0E7
:101180000E945E15892B61F46FE070E080E090E0D2
:101190000E94E31387E00E945E15892BD9F303C0F8
:1011A00080E090E002C084E191E060960FB6F89490
:1011B000DEBF0FBECDBFDF91CF911F910F91FF908A
:1011C000EF90DF90CF90BF90AF9008950F931F9353
:1011D000CF93DF93CDB7DEB760970FB6F894DEBF3D
:1011E0000FBECDBF6BE070E084ED92E0A8D684ED39
:1011F00092E07BD78C01F894BC01882777FD80951D
:10120000982F0E9425179B01AC010E94261620E012
:1012100030E040EA50E40E948A160E94F216CB01A8
:10122000AA2797FDA095BA2F8093CB029093CC026A
:10123000A093CD02B093CE0278941F930F9386E7CC
:1012400092E09F938F931F9281E18F938E010F5FA6
:101250001F4F1F930F930E941B18C801D8DA0FB6B7
:10126000F894DEBF0FBECDBF60960FB6F894DEBF18
:101270000FBECDBFDF91CF911F910F91089584EDE7
:1012800092E062C6CF92DF92EF92FF920F931F938C
:10129000CF93DF93CDB7DEB760970FB6F894DEBF7C
:1012A0000FBECDBF80913503811111C085E393E05E
:1012B0000E945D13892B59F084ED92E016D790932C
:1012C0002C0380932B0385E393E00E9466138091A7
:1012D0002D03811122C08DE293E00E945D13892BC2
:1012E000E1F08091CF02823030F4F89484EC92E007
:1012F0000E949C0001C0F8948091CB029091CC0296
:10130000A091CD02B091CE02789490932A0380935D
:1013100029038DE293E00E9466138091CF02823010
:1013200030F4F89484EC92E00E949C0001C0F894A0
:101330006091CB027091CC028091CD029091CE024F
:10134000789422E030E040E050E00E94D615890118
:1013500037FF0CC0F8941092CB021092CC0210927E
:10136000CD021092CE02789400E010E08091290323
:1013700090912A030817190729F10E94B413C0900D
:101380002503D0902603E0902703F09028036C19E2
:101390007D098E099F09643171058105910524F04D
:1013A000CC24C394D12C03C02AE0C22ED12C0E949D
:1013B000B4136093250370932603809327039093BF
:1013C000280303C0CC24C394D12C8091290390918D
:1013D0002A039801281B390BC29E7001C39EF00C92
:1013E000D29EF00C112480912B0390912C03E80ED7
:1013F000F91EF7FE02C0E12CF12C35EBE316F104E7
:101400001CF084EBE82EF12C10932A03009329039F
:1014100086E00E945E15892B21F4B70184ED92E0ED
:10142000E4D580912B0390912C03E816F906D9F0AE
:10143000FF92EF9281E892E09F938F931F9281E158
:101440008F938E010F5F1F4F1F930F930E941B18E6
:10145000C801DDD9F0922C03E0922B030FB6F8946B
:10146000DEBF0FBECDBF87E00E945E15892B61F401
:101470006FE070E080E090E00E94E31387E00E945C
:101480005E15892BD9F303C080E090E002C084E1AF
:1014900091E060960FB6F894DEBF0FBECDBFDF912E
:1014A000CF911F910F91FF90EF90DF90CF90089513
:1014B0000F931F93CF93DF93CDB7DEB760970FB62F
:1014C000F894DEBF0FBECDBF6BE070E084ED92E01C
:1014D00036D584ED92E009D68C01F894BC018827BA
:1014E00077FD8095982F0E9425179B01AC010E94E3
:1014F000261620E030E040EA50E40E948A160E945E
:10150000F216CB01AA2797FDA095BA2F8093CB02A4
:101510009093CC02A093CD02B093CE0278941F9307
:101520000F9386E792E09F938F931F9281E18F93B1
:101530008E010F5F1F4F1F930F930E941B18C8014E
:1015400066D90FB6F894DEBF0FBECDBF60960FB65A
:10155000F894DEBF0FBECDBFDF91CF911F910F91E9
:10156000089584ED92E0F0C4CF92DF92EF92FF9263
:101570000F931F93CF93DF93CDB7DEB760970FB66E
:10158000F894DEBF0FBECDBF80914D03811111C015
:101590008DE493E00E945D13892B59F084ED92E075
:1015A000A4D590934403809343038DE493E00E9479
:1015B000661380914503811122C085E493E00E9467
:1015C0005D13892BE1F08091CF02823030F4F894E2
:1015D00084EC92E00E949C0001C0F8948091CB02C0
:1015E0009091CC02A091CD02B091CE0278949093CC
:1015F00042038093410385E493E00E946613809147
:10160000CF02823030F4F89484EC92E00E949C0087
:1016100001C0F8946091CB027091CC028091CD0210
:101620009091CE02789422E030E040E050E00E94B9
:10163000D615890137FF0CC0F8941092CB02109296
:10164000CC021092CD021092CE02789400E010E00D
:1016500080914103909142030817190729F10E94D4
:10166000B413C0903D03D0903E03E0903F03F09050
:1016700040036C197D098E099F096431710581054C
:10168000910524F0CC24C394D12C03C02AE0C22EAF
:10169000D12C0E94B41360933D0370933E0380935A
:1016A0003F039093400303C0CC24C394D12C80917A
:1016B0004103909142039801281B390BC29E70018F
:1016C000C39EF00CD29EF00C1124809143039091A4
:1016D0004403E80EF91EF7FE02C0E12CF12C35EBB5
:1016E000E316F1041CF084EBE82EF12C1093420376
:1016F00000934103B70184ED92E077D480914303D6
:1017000090914403E816F906D9F0FF92EF9281E830
:1017100092E09F938F931F9281E18F938E010F5FD1
:101720001F4F1F930F930E941B18C80170D8F0928F
:101730004403E09243030FB6F894DEBF0FBECDBF63
:1017400087E00E945E15892B61F46FE070E080E015
:1017500090E00E94E31387E00E945E15892BD9F385
:1017600003C080E090E002C084E191E060960FB693
:10177000F894DEBF0FBECDBFDF91CF911F910F91C7
:10178000FF90EF90DF90CF90089540E052EC61E041
:1017900070E087EE94E007D66BE872E087EE94E0A5
:1017A0002ED761E082E00E942915E0916001F0915E
:1017B000610182819381892B79F061E972E087EE82
:1017C00094E01DD7E0916001F09161010280F38106
:1017D000E02D80E090E0099562E086E00E94F01440
:1017E00062E087E00C94F0140F931F93CF93DF9384
:1017F00080915A03811111C08AE593E05ED7892B4D
:1018000061F0B2D7609356037093570380935803E7
:10181000909359038AE593E059D7A6D700915603D0
:10182000109157032091580330915903601B710B9D
:10183000820B930B653F71408105910590F060919B
:10184000550381E06827609355038DE00E942915B8
:101850008BD76093560370935703809358039093EC
:101860005903E0916001F0916101808180FD0E9447
:10187000B403E0916001F09161010680F781E02DF1
:101880003097D9F00995EC010097B9F0E09160012B
:10189000F09161010480F581E02D309709F0099500
:1018A000EA81FB81309729F080916001909161017C
:1018B0000995D0936101C0936001DF91CF911F9191
:1018C0000F910895613498F420912F04243089F405
:1018D0006093A403FC0186EA93E0DC012A2F281B15
:1018E000261718F421912D93F9CF80E0089581E017
:1018F000089582E0089585ED8093BC008091BC003E
:1019000084FDFCCF10922F04089585EC8093BC00D9
:1019100010922F0408951F920F920FB60F92112468
:101920002F933F934F935F936F937F938F939F93E7
:10193000AF93BF93EF93FF938091B900887F803678
:1019400009F49CC068F5883209F45BC090F48031DA
:1019500009F454C038F4882309F4F3C0883009F43A
:101960004DC0F2C0883109F44CC0803209F45DC02A
:10197000EBC0803409F468C048F4803309F455C0E2
:10198000883309F0E1C080936203A7C0803509F471
:101990004FC0883509F45DC0883409F0D5C0D3C084
:1019A000883909F4C4C0A8F4883709F467C038F44A
:1019B000883609F463C0803709F460C0C5C0883830
:1019C00009F4B5C0803909F45FC0803809F0BCC0A3
:1019D0005BC0803B09F483C038F4803A09F466C0E8
:1019E000883A09F47CC0B0C0803C09F4A4C0883CAB
:1019F00009F4A1C0883B09F487C0A6C080912E04D9
:101A000010C09091E7038091E603981770F5E0917C
:101A1000E70381E08E0F8093E703F0E0E851FC4F8D
:101A200080818093BB0085EC83C0809362038BC070
:101A3000E091E70381E08E0F8093E7038091BB0084
:101A4000F0E0E851FC4F80839091E7038091E6033A
:101A50006BC0E091E70381E08E0F8093E7038091F4
:101A6000BB00F0E0E851FC4F808380912D04811190
:101A70006AC081E080932C0484EA5EC083E0809396
:101A80002F0410926303CFCF80916303803408F05A
:101A90004EC0E091630381E08E0F809363038091D9
:101AA000BB00F0E0EC59FC4F8083BDCF8091630315
:101AB000803430F4E0916303F0E0EC59FC4F108285
:101AC0001ADF6091630370E0E0912804F09129042B
:101AD00084E693E009951092630317DF35C084E034
:101AE00080932F041092A5031092A403E0912A047E
:101AF000F0912B0409958091A403811105C081E028
:101B00008093A4031092A603E091A50381E08E0FB9
:101B10008093A503F0E0EA55FC4F80818093BB00E1
:101B20009091A5038091A403981708F47CCF85E8D1
:101B30008093BC0009C085EC8093BC0010922F04F8
:101B400003C010926203D7DEFF91EF91BF91AF9176
:101B50009F918F917F916F915F914F913F912F91C5
:101B60000F900FBE0F901F90189580917F0490E00A
:101B700020918004821B9109089520918004809116
:101B80007F04281750F4E22FF0E0EF57FB4F8081DD
:101B900090E02F5F2093800408958FEF9FEF0895CA
:101BA000E091800480917F04E81730F4F0E0EF5773
:101BB000FB4F808190E008958FEF9FEF0895089587
:101BC000CF92DF92EF92FF920F931F93CF93DF9309
:101BD0007C01CB018A0120913C04222389F0EB0196
:101BE0006B01C40ED51ECC15DD0561F06991D701DE
:101BF000ED91FC910190F081E02DC7010995F3CFA3
:101C0000642F60DEC801DF91CF911F910F91FF908B
:101C1000EF90DF90CF900895CF93DF931F92CDB7D1
:101C2000DEB7698320913C042223D1F020913D044A
:101C3000203440F021E030E0FC013383228380E057
:101C400090E014C080913E04E82FF0E0E15CFB4F8F
:101C5000998190838F5F80933E0480933D0404C0FC
:101C600061E0CE0101962EDE81E090E00F90DF91E1
:101C7000CF910895FC011382128248EE53E060E098
:101C800070E0448355836683778385EA92E091838D
:101C90008083089580E394E0EDCF1F920F920FB6FA
:101CA0000F9211242F933F934F935F936F937F93E2
:101CB0008F939F93AF93BF93EF93FF938091C20451
:101CC00087FF05C010928500109284001AC02091F1
:101CD000C204332727FD30958091C10490E0281776
:101CE00039077CF48091C204992787FD9095FC0107
:101CF000EE0FFF1FE80FF91FED53FB4F808186FDAC
:101D000015C08091C2048F5F8093C2042091C204E9
:101D1000332727FD30958091C10490E028173907BB
:101D2000B4F48091C2048C3054F111C08091C2048B
:101D3000992787FD9095FC01EE0FFF1FE80FF91F13
:101D4000ED53FB4F808160E08F7383D6DACF8091B3
:101D5000840090918500049680349C4918F480E4B6
:101D60009CE905C080918400909185000496909331
:101D70008900809388008FEF8093C20437C08091E0
:101D80008400909185002091C204332727FD30956F
:101D9000F901EE0FFF1FE20FF31FED53FB4F2181FF
:101DA0003281820F931F90938900809388008091E5
:101DB000C204992787FD9095FC01EE0FFF1FE80FE5
:101DC000F91FED53FB4F808186FF10C08091C20444
:101DD000992787FD9095FC01EE0FFF1FE80FF91F73
:101DE000ED53FB4F808161E08F7333D6FF91EF910C
:101DF000BF91AF919F918F917F916F915F914F9123
:101E00003F912F910F900FBE0F901F90189520912A
:101E1000C1042C30A0F431E0320F3093C104FC0136
:101E20002083822F90E0FC01EE0FFF1FE80FF91FC7
:101E3000ED53FB4F88EB9BE09283818308952FEF56
:101E4000FC0120830895DF92EF92FF920F931F937E
:101E5000CF93DF93EC01D62E7A01890188818C30F3
:101E600008F064C061E08D2DBBD58881A82FB0E05B
:101E7000FD01EE0FFF1FEA0FFB1FED53FB4F2D2D52
:101E80002F739081907C922B908360E272E06E19A8
:101E90007F0977FF02C06D5F7F4F759567957595D8
:101EA0006795698340E659E0401B510B57FF02C01C
:101EB0004D5F5F4F55954795559547954A836CE023
:101EC00034D69CE0899FB001112420E030E0A901C4
:101ED000460F571FFA01EE0FFF1FE40FF51FED53DA
:101EE000FB4F908196FD16C02F5F3F4F2C30310580
:101EF00071F781110FC01092800082E08093810001
:101F00001092850010928400B19A80916F008260D7
:101F100080936F00888190E0FC01EE0FFF1FE80FB7
:101F2000F91FED53FB4F8081806480838881DF91AE
:101F3000CF911F910F91FF90EF90DF90089520E6D1
:101F400039E040E252E07FCFFC01808190E0FC016B
:101F5000EE0FFF1FE80FF91FED53FB4F80818F7BC2
:101F600080830895FC0120812C3008F03DC0318130
:101F700088E890E0831B910937FD9395880F991F9E
:101F8000880F991F681779077CF0328188E592E005
:101F9000831B910937FD9395880F991F880F991F0F
:101FA000681779070CF4CB0102974FB7F89430E02B
:101FB000F901EE0FFF1FE20FF31FED53FB4FAA27AE
:101FC00097FDA095BA2F64E0880F991FAA1FBB1F29
:101FD0006A95D1F773E0B695A795979587957A9509
:101FE000D1F7928381834FBF08954F925F926F9292
:101FF0007F92AF92BF92CF92DF92EF92FF920F93B8
:102000001F93CF93DF93EC01603282E078070CF0EE
:102010003FC077FD06C0653B71052CF064EB70E0B6
:1020200002C060E070E0898128E830E0281B3109B7
:1020300087FD3395220F331F220F331F5901CC2404
:10204000B7FCC094DC2C882777FD8095982F2A81D7
:1020500048E552E0421B510927FD5395440F551F97
:10206000440F551F2A01662457FC6094762C7F92FA
:102070006F925F924F9214EBE12EF12C00E010E092
:1020800020E030E0A901CBD20F900F900F900F907D
:10209000CE01DF91CF911F910F91FF90EF90DF90D4
:1020A000CF90BF90AF907F906F905F904F905ACF3E
:1020B000FC0180818F3FB1F090E0FC01EE0FFF1F2B
:1020C000E80FF91FED53FB4F8181928143E0880FA8
:1020D000991F4A95E1F754E0969587955A95E1F74F
:1020E0000296089580E090E00895AF92BF92CF925B
:1020F000DF92EF92FF920F931F93CF93DF93EC0148
:10210000D7DF2A8148E552E0421B510927FD53954C
:10211000440F551F440F551F7A010027F7FC009507
:10212000102F498128E830E0241B310947FD339501
:10213000220F331F220F331F442737FD4095542FA2
:102140000196BC01882777FD8095982F1F921F92DA
:102150001F92E4EBEF93A12CB12C650160D20F909C
:102160000F900F900F90CB01DF91CF911F910F91A6
:10217000FF90EF90DF90CF90BF90AF900895FC015B
:1021800024853585F901E05CFF4F80819181F9015B
:10219000EE5BFF4F20813181821B930B8F73992758
:1021A0000895FC0184859585FC01E05CFF4F40812A
:1021B0005181FC01EE5BFF4F2081318142175307B3
:1021C00041F00190F081E02DE80FF91F808190E04F
:1021D00008958FEF9FEF0895FC0184859585FC019C
:1021E000E05CFF4F40815181FC01EE5BFF4F20819D
:1021F00031814217530779F0A081B181A80FB91F2F
:102200008C91208131812F5F3F4F2F733327318392
:10221000208390E008958FEF9FEF0895FC0181A146
:10222000882329F0A489B5898C9186FFFBCF11A260
:102230000895CF93DF93FC0126853785D901A05CF3
:10224000BF4F8D919C91119701968F739927E9014A
:10225000CE5BDF4F4881598184179507D9F30D90E4
:10226000BC91A02DA20FB31F6C93A685B785A05C6F
:10227000BF4F11969C938E93A689B7892C9181E0CC
:1022800090E0078C02C0880F991F0A94E2F7282B70
:102290002C9381E081A30488F589E02D80818064FE
:1022A000808381E090E0DF91CF91089508951F929F
:1022B0000F920FB60F9211242F933F934F938F934A
:1022C0009F93EF93FF938091C00082FD1CC04091CB
:1022D000C60080918D0590918E0501968F73992788
:1022E00020918F05309190058217930771F0E0914E
:1022F0008D05F0918E05E35BFA4F408390938E0538
:1023000080938D0502C08091C600FF91EF919F914F
:102310008F914F913F912F910F900FBE0F901F9073
:10232000189587EE94E02BDF892B09F0BFCF089535
:102330001F920F920FB60F9211242F933F938F93FA
:102340009F93EF93FF932091490530914A05809127
:102350004B0590914C052817390731F48091C10045
:102360008F7D8093C10014C0E0914B05F0914C0526
:10237000E75FFA4F208180914B0590914C050196C3
:102380008F73992790934C0580934B052093C6003B
:10239000FF91EF919F918F913F912F910F900FBEE1
:1023A0000F901F901895CF92DF92EF92FF92CF93EC
:1023B000DF93EC016A017B01411581EE580761054D
:1023C0007105F1F0EC89FD8981E090E008A002C080
:1023D000880F991F0A94E2F7808360E079E08DE32B
:1023E00090E0A7019601C0D321503109410951095C
:1023F0005695479537952795211580E1380790F038
:10240000EC89FD89108260E874E88EE190E0A70114
:102410009601AAD321503109410951095695479592
:1024200037952795E889F9893083EA89FB892083E4
:1024300019A2EE89FF89408181E090E09C010C8C1B
:1024400002C0220F331F0A94E2F7422B4083EE8929
:10245000FF8940819C010D8C02C0220F331F0A941A
:10246000E2F7422B4083EE89FF8940819C010E8C6C
:1024700002C0220F331F0A94E2F7422B4083EE89F9
:10248000FF8920810F8C02C0880F991F0A94E2F700
:10249000809582238083DF91CF91FF90EF90DF9032
:1024A000CF9008951092EA041092E90488EE93E028
:1024B000A0E0B0E08093EB049093EC04A093ED04D3
:1024C000B093EE0485EB92E09093E8048093E704E8
:1024D0008DE495E09093F4048093F30489E095E013
:1024E0009093F6048093F50485EC90E09093F804C3
:1024F0008093F70484EC90E09093FA048093F904BD
:1025000080EC90E09093FC048093FB0481EC90E0DD
:102510009093FE048093FD0482EC90E0909300057C
:102520008093FF0486EC90E0909302058093010570
:1025300084E08093030583E08093040587E0809323
:10254000050585E08093060581E0809307050895E1
:10255000CF92DF92EF92FF920F931F93CF93DF936F
:102560006C017A01EB01E60EF71E00E010E0CE15DB
:10257000DF0561F06991D601ED91FC910190F08148
:10258000E02DC6010995080F191FF1CFC801DF9191
:10259000CF911F910F91FF90EF90DF90CF90089512
:1025A0006115710581F0DB010D900020E9F7AD01A7
:1025B00041505109461B570BDC01ED91FC91028003
:1025C000F381E02D099480E090E00895DC01ED9125
:1025D000FC910190F081E02D09940F931F93CF930C
:1025E000DF93EC016DE0F2DF8C016AE0CE01EEDFFB
:1025F000800F911FDF91CF911F910F9108950F933D
:102600001F93CF93DF93EC01CBDF8C01CE01E5DF8D
:10261000800F911FDF91CF911F910F9108954F92DD
:102620005F926F927F92AF92BF92CF92DF92EF92C2
:10263000FF920F931F93CF93DF93CDB7DEB729019E
:102640003A01621B730B840B950B29893A894B89DC
:102650005C892A193B094C095D09298B3A8B4B8B04
:102660005C8B9B01AC0169897A898B899C894ED2EC
:10267000E418F50806091709A801970197D22A0D51
:102680003B1D4C1D5D1DCA01B901DF91CF911F910A
:102690000F91FF90EF90DF90CF90BF90AF907F9021
:1026A0006F905F904F900895BDD06FD8C1E9D1E190
:1026B0009BD82097E9F335DEFBCFFC0181E090E069
:1026C0002081222311F080E090E0089521E0FC01B8
:1026D000208308951F920F920FB60F9211242F930B
:1026E0003F938F939F93AF93BF9380919205909167
:1026F0009305A0919405B09195053091910523E043
:10270000230F2D3720F40196A11DB11D05C026E829
:10271000230F0296A11DB11D209391058093920570
:1027200090939305A0939405B09395058091960599
:1027300090919705A0919805B09199050196A11DDA
:10274000B11D8093960590939705A0939805B0933B
:102750009905BF91AF919F918F913F912F910F90CC
:102760000FBE0F901F9018952FB7F89460919205A7
:102770007091930580919405909195052FBF0895D0
:102780003FB7F8948091960590919705A091980590
:10279000B091990526B5A89B05C02F3F19F0019669
:1027A000A11DB11D3FBF6627782F892F9A2F620F79
:1027B000711D811D911D42E0660F771F881F991FB3
:1027C0004A95D1F70895CF92DF92EF92FF92CF937F
:1027D000DF936B017C01D4DFEB01C114D104E10470
:1027E000F10471F0CDDF6C1B7D0B683E7340A8F3E4
:1027F00081E0C81AD108E108F108C851DC4FEDCFDB
:10280000DF91CF91FF90EF90DF90CF9008950197E7
:10281000009739F0880F991F880F991F0297019729
:10282000F1F70895789484B5826084BD84B58160A1
:1028300084BD85B5826085BD85B5816085BDEEE6C8
:10284000F0E0808181608083E1E8F0E010828081A7
:1028500082608083808181608083E0E8F0E0808115
:1028600081608083E1EBF0E0808184608083E0EB35
:10287000F0E0808181608083EAE7F0E0808184601D
:102880008083808182608083808181608083808179
:10289000806880831092C10008958E3008F08E50B9
:1028A00087702091620190E4299F90011124822B6E
:1028B00080937C0080917A00806480937A0080917C
:1028C0007A0086FDFCCF809178002091790090E01D
:1028D000922B08951F93CF93DF93182FEB0161E0A4
:1028E0007FD0209711F460E004C0CF3FD10531F4D0
:1028F00061E0812FDF91CF911F91ABC0E12FF0E01C
:10290000E859FF4FE491E330F9F048F4E130B9F0D1
:10291000E230A1F584B5806284BDC8BD34C0E63024
:10292000E9F0E73019F1E43049F5809180008062E8
:1029300080938000D0938B00C0938A0024C084B51C
:10294000806884BDC7BD1FC080918000806880936F
:102950008000D0938900C093880015C08091B0009A
:1029600080688093B000C093B3000DC08091B00028
:1029700080628093B000C093B40005C0C038D10518
:102980000CF0B6CFB0CFDF91CF911F910895833077
:1029900081F028F4813099F08230A1F008958630DA
:1029A000A9F08730B9F08430D1F4809180008F7D18
:1029B00003C0809180008F7780938000089584B554
:1029C0008F7702C084B58F7D84BD08958091B0005B
:1029D0008F7703C08091B0008F7D8093B000089501
:1029E000CF93DF9390E0FC01E458FF4F2491FC016A
:1029F000E057FF4F8491882349F190E0880F991F99
:102A0000FC01E854FF4FA591B49182559F4FFC0102
:102A1000C591D4919FB7611108C0F8948C9120950D
:102A200082238C93888182230AC0623051F4F89407
:102A30008C91322F309583238C938881822B8883CD
:102A400004C0F8948C91822B8C939FBFDF91CF911F
:102A500008950F931F93CF93DF931F92CDB7DEB7E7
:102A6000282F30E0F901E859FF4F8491F901E4582B
:102A7000FF4F1491F901E057FF4F04910023C1F07B
:102A8000882319F0698383DF6981E02FF0E0EE0F7E
:102A9000FF1FE255FF4FA591B4919FB7F8948C9119
:102AA000611103C01095812301C0812B8C939FBFBE
:102AB0000F90DF91CF911F910F910895CF93DF93E6
:102AC000282F30E0F901E859FF4F8491F901E458CB
:102AD000FF4FD491F901E057FF4FC491CC2389F007
:102AE000811155DFEC2FF0E0EE0FFF1FEC55FF4F8B
:102AF000A591B4912C912D2381E090E021F480E008
:102B000002C080E090E0DF91CF910895DB018F93C8
:102B10009F9368D0BF91AF91A29F800D911DA39FFD
:102B2000900DB29F900D11240895991B79E004C077
:102B3000991F961708F0961B881F7A95C9F78095FC
:102B4000089597FB072E16F4009406D077FD08D061
:102B500053D007FC05D03EF4909581959F4F089582
:102B6000709561957F4F0895A1E21A2EAA1BBB1B99
:102B7000FD010DC0AA1FBB1FEE1FFF1FA217B30749
:102B8000E407F50720F0A21BB30BE40BF50B661F5F
:102B9000771F881F991F1A9469F760957095809523
:102BA00090959B01AC01BD01CF010895052E97FBC7
:102BB00016F400940FD057FD05D0D6DF07FC02D0E5
:102BC00046F408C050954095309521953F4F4F4FA2
:102BD0005F4F089590958095709561957F4F8F4FC9
:102BE0009F4F089523D0A59F900DB49F900DA49F53
:102BF000800D911D11240895AA1BBB1B51E107C034
:102C0000AA1FBB1FA617B70710F0A61BB70B881F7C
:102C1000991F5A95A9F780959095BC01CD0108950B
:102C2000EE0FFF1F0590F491E02D0994A29FB001D3
:102C3000B39FC001A39F700D811D1124911DB29FF0
:102C4000700D811D1124911D08955058BB27AA278E
:102C50000ED04DC13ED130F043D120F031F49F3F32
:102C600011F41EF433C10EF4E095E7FB29C1E92FFE
:102C70004FD180F3BA17620773078407950718F0DE
:102C800071F49EF567C10EF4E0950B2EBA2FA02DBE
:102C90000B01B90190010C01CA01A0011124FF2709
:102CA000591B99F0593F50F4503E68F11A16F04004
:102CB000A22F232F342F4427585FF3CF4695379503
:102CC0002795A795F0405395C9F77EF41F16BA0BC8
:102CD000620B730B840BBAF09150A1F0FF0FBB1F76
:102CE000661F771F881FC2F70EC0BA0F621F731FBF
:102CF000841F48F4879577956795B795F7959E3F1C
:102D000008F0B3CF9395880F08F09927EE0F9795A9
:102D1000879508950CD0EBC0E3D040F0DAD030F0C6
:102D200021F45F3F19F0CCC0511115C1CFC0F0D0D4
:102D300098F39923C9F35523B1F3951B550BBB2782
:102D4000AA2762177307840738F09F5F5F4F220F2F
:102D5000331F441FAA1FA9F333D00E2E3AF0E0E828
:102D600030D091505040E695001CCAF729D0FE2F74
:102D700027D0660F771F881FBB1F26173707480706
:102D8000AB07B0E809F0BB0B802DBF01FF279358BC
:102D90005F4F2AF09E3F510568F092C0DCC05F3F54
:102DA000ECF3983EDCF3869577956795B795F795A4
:102DB0009F5FC9F7880F911D9695879597F908959C
:102DC000E1E0660F771F881FBB1F62177307840738
:102DD000BA0720F0621B730B840BBA0BEE1F88F747
:102DE000E095089504D06894B111B5C0089598D0C5
:102DF00088F09F5790F0B92F9927B751A0F0D1F0E4
:102E0000660F771F881F991F1AF0BA95C9F712C06D
:102E1000B13081F09FD0B1E008959CC0672F782F2A
:102E20008827B85F39F0B93FCCF3869577956795D9
:102E3000B395D9F73EF490958095709561957F4F45
:102E40008F4F9F4F0895E89409C097FB3EF49095EB
:102E50008095709561957F4F8F4F9F4F9923A9F073
:102E6000F92F96E9BB279395F69587957795679502
:102E7000B795F111F8CFFAF4BB0F11F460FF1BC046
:102E80006F5F7F4F8F4F9F4F16C0882311F096E9D9
:102E900011C0772321F09EE8872F762F05C0662387
:102EA00071F096E8862F70E060E02AF09A95660F40
:102EB000771F881FDAF7880F9695879597F90895F9
:102EC00097F99F6780E870E060E008959FEF80ECDD
:102ED000089500240A941616170618060906089580
:102EE00000240A9412161306140605060895092EE6
:102EF0000394000C11F4882352F0BB0F40F4BF2B55
:102F000011F460FF04C06F5F7F4F8F4F9F4F089594
:102F100057FD9058440F551F59F05F3F71F047958A
:102F2000880F97FB991F61F09F3F79F0879508956F
:102F3000121613061406551FF2CF4695F1DF08C08E
:102F4000161617061806991FF1CF869571056105AB
:102F500008940895E894BB2766277727CB0197F953
:102F600008950BD0C4CFB5DF28F0BADF18F0952351
:102F700009F0A6CFABCF1124EECFCADFA0F3959F07
:102F8000D1F3950F50E0551F629FF001729FBB2750
:102F9000F00DB11D639FAA27F00DB11DAA1F649FFC
:102FA0006627B00DA11D661F829F2227B00DA11DAF
:102FB000621F739FB00DA11D621F839FA00D611D35
:102FC000221F749F3327A00D611D231F849F600D56
:102FD000211D822F762F6A2F11249F5750408AF08F
:102FE000E1F088234AF0EE0FFF1FBB1F661F771F1B
:102FF000881F91505040A9F79E3F510570F060CF57
:10300000AACF5F3FECF3983EDCF386957795679502
:10301000B795F795E7959F5FC1F7FE2B880F911D38
:103020009695879597F90895FB01DC0101900D9223
:103030000020E1F70895AEE0B0E0E0E2F8E19FC2E1
:103040000D891E898F89988D26E02C831A83098328
:1030500097FF02C080E090E801979E838D83AE01C8
:10306000455E5F4F698D7A8DCE01019611D04D81FD
:103070005E8157FD0AC02F813885421753070CF433
:103080009A01F801E20FF31F10822E96E4E093C23A
:10309000ACE0B0E0EDE4F8E164C27C016B018A01D0
:1030A000FC0117821682838181FFB0C1CE01019697
:1030B0004C01F7019381F60193FD859193FF819176
:1030C0006F01882309F49EC1853239F493FD8591FF
:1030D00093FF81916F01853221F4B70190E0B1D166
:1030E000E8CF512C312C20E02032A0F48B3269F053
:1030F00030F4803259F0833269F420612CC08D3273
:1031000039F0803339F4216026C02260246023C066
:10311000286021C027FD27C030ED380F3A3078F401
:1031200026FF06C0FAE05F9E300D1124532E13C017
:103130008AE0389E300D1124332E20620CC08E326E
:1031400021F426FD5FC1206406C08C3611F420688E
:1031500002C0883641F4F60193FD859193FF819179
:103160006F018111C1CF982F9F7D9554933028F422
:103170000C5F1F4FFFE3F9830DC0833631F08337B7
:1031800071F0833509F057C021C0F801808189832F
:103190000E5F1F4F44244394512C540114C0380136
:1031A000F2E06F0E711CF801A080B18026FF03C011
:1031B000652D70E002C06FEF7FEFC5012C8736D11F
:1031C0002C0183012C852F77222E16C03801F2E0C6
:1031D0006F0E711CF801A080B18026FF03C0652D21
:1031E00070E002C06FEF7FEFC5012C8714D12C0176
:1031F0002C852068222E830123FC19C0832D90E0AA
:1032000048165906A0F4B70180E290E01AD13A942A
:10321000F5CFF50127FC859127FE81915F01B7016C
:1032200090E00FD131103A94F1E04F1A5108411457
:10323000510479F7DEC0843611F0893631F5F80192
:1032400027FF07C060817181828193810C5F1F4FCE
:1032500008C060817181882777FD8095982F0E5F67
:103260001F4F2F76B22E97FF09C0909580957095CD
:1032700061957F4F8F4F9F4F2068B22E2AE030E03C
:10328000A40111D1A82EA81843C0853729F42F7E98
:10329000B22E2AE030E025C0F22FF97FBF2E8F3604
:1032A000C1F018F4883579F0ADC0803719F088374F
:1032B00021F0A8C02F2F2061B22EB4FE0DC08B2D9F
:1032C0008460B82E09C024FF0AC09F2F9660B92ED3
:1032D00006C028E030E005C020E130E002C020E177
:1032E00032E0F801B7FE07C060817181828193816D
:1032F0000C5F1F4F06C06081718180E090E00E5F1F
:103300001F4FA401D0D0A82EA818FB2DFF77BF2EE9
:10331000B6FE0BC02B2D2E7FA51450F4B4FE0AC0B0
:10332000B2FC08C02B2D2E7E05C07A2C2B2D03C09D
:103330007A2C01C0752C24FF0DC0FE01EA0DF11D91
:103340008081803311F4297E09C022FF06C0739466
:10335000739404C0822F867809F0739423FD12C001
:1033600020FF06C05A2C731418F4530C5718732CF2
:10337000731460F4B70180E290E02C8762D07394FC
:103380002C85F6CF731410F4371801C0312C24FFAC
:1033900011C0B70180E390E02C8753D02C8522FF29
:1033A00016C021FF03C088E590E002C088E790E0E6
:1033B000B7010CC0822F867851F021FD02C080E257
:1033C00001C08BE227FD8DE2B70190E03AD0A51451
:1033D00030F4B70180E390E034D05A94F8CFAA9447
:1033E000F401EA0DF11D8081B70190E02AD0A1100F
:1033F000F6CF332009F45DCEB70180E290E021D012
:103400003A94F7CFF7018681978102C08FEF9FEF43
:103410002C96E2E1C2C0FC010590615070400110A1
:10342000D8F7809590958E0F9F1F0895FC016150ED
:10343000704001900110D8F7809590958E0F9F1FD6
:1034400008950F931F93CF93DF93182F092FEB014C
:103450008B8181FD03C08FEF9FEF20C082FF10C0E2
:103460004E815F812C813D81421753077CF4E881B6
:10347000F9819F012F5F3F4F39832883108306C056
:10348000E885F985812F0995892B29F72E813F81C0
:103490002F5F3F4F3F832E83812F902FDF91CF915E
:1034A0001F910F910895FA01AA27283051F1203178
:1034B00081F1E8946F936E7F6E5F7F4F8F4F9F4FC8
:1034C000AF4FB1E03ED0B4E03CD0670F781F891F0A
:1034D0009A1FA11D680F791F8A1F911DA11D6A0FD8
:1034E000711D811D911DA11D20D009F468943F918B
:1034F0002AE0269F11243019305D3193DEF6CF018A
:103500000895462F4770405D4193B3E00FD0C9F74F
:10351000F6CF462F4F70405D4A3318F0495D31FDBC
:103520004052419302D0A9F7EACFB4E0A69597950F
:10353000879577956795BA95C9F7009761057105E5
:1035400008959B01AC010A2E06945795479537952F
:103550002795BA95C9F7620F731F841F951FA01D89
:1035600008952F923F924F925F926F927F928F9227
:103570009F92AF92BF92CF92DF92EF92FF920F9302
:103580001F93CF93DF93CDB7DEB7CA1BDB0B0FB60C
:10359000F894DEBF0FBECDBF09942A8839884888C9
:1035A0005F846E847D848C849B84AA84B984C8845F
:1035B000DF80EE80FD800C811B81AA81B981CE0F56
:1035C000D11D0FB6F894DEBF0FBECDBFED0108953B
:0435D000F894FFCF9D
:1035D4000100000000008F008E00F1000000C50112
:1035E400C401D201000064026302710200000603F8
:1035F40011031203010000000F0400000C0400007A
:103604001C041B044B0400004C054B057B05000007
:1036140093069206D306F4010000DB0708080B08A2
:103624000000E6083F0942090000580AB10AB40A3A
:1036340026010179018001840190019401A201AC69
:1036440001B101BB01CA01DB01534552564F53007E
:1036540050574D00416E616C6F6720526561640084
:10366400493243004C494149534F4E205345524936
:103674004500202030202D20323535002020202503
:1036840000202030202D2035205600414E474C4547
:1036940020747073207265656C00414E474C452060
:1036A40076616C69646174696F6E004D4943524F71
:1036B4005345434F4E4445530043482564203A2024
:1036C400256420252500646562757420696E69741B
:1036D400206D6174C3A97269656C6C657300666959
:1036E4006E20696E6974206D6174C3A97269656C1A
:1036F4006C657300506F733D2030202F32353500D8
:10370400506F733D202564202F32353500506F7380
:103714003D20302C30205600506F733D2025642C02
:103724002564205600506F733D203020252500501D
:103734006F733D2025642025250064656C61793D07
:10374400202564757300416E676C65203D202564F7
:1037540000416E676C653D2025640073746172746A
:1037640000736F7274696520696E6974206D617489
:1037740000000000000C0EE00DB50DBD0DD00DDFF6
:103784000D000000001911A812BF10EC10D1100E8A
:02379400110022
:00000001FF
